{
  "contractName": "RegistroCertificado",
  "abi": [
    {
      "anonymous": false,
      "inputs": [
        {
          "indexed": false,
          "internalType": "uint256",
          "name": "id",
          "type": "uint256"
        },
        {
          "indexed": false,
          "internalType": "string",
          "name": "nomeAluno",
          "type": "string"
        },
        {
          "indexed": false,
          "internalType": "string",
          "name": "curso",
          "type": "string"
        },
        {
          "indexed": false,
          "internalType": "string",
          "name": "dataEmissao",
          "type": "string"
        }
      ],
      "name": "CertificadoRegistrado",
      "type": "event"
    },
    {
      "anonymous": false,
      "inputs": [
        {
          "indexed": false,
          "internalType": "uint256",
          "name": "id",
          "type": "uint256"
        }
      ],
      "name": "CertificadoRevogado",
      "type": "event"
    },
    {
      "inputs": [
        {
          "internalType": "uint256",
          "name": "",
          "type": "uint256"
        }
      ],
      "name": "certificados",
      "outputs": [
        {
          "internalType": "uint256",
          "name": "id",
          "type": "uint256"
        },
        {
          "internalType": "string",
          "name": "nomeAluno",
          "type": "string"
        },
        {
          "internalType": "string",
          "name": "curso",
          "type": "string"
        },
        {
          "internalType": "string",
          "name": "dataEmissao",
          "type": "string"
        },
        {
          "internalType": "bool",
          "name": "valido",
          "type": "bool"
        }
      ],
      "stateMutability": "view",
      "type": "function",
      "constant": true
    },
    {
      "inputs": [
        {
          "internalType": "uint256",
          "name": "",
          "type": "uint256"
        }
      ],
      "name": "idsCertificados",
      "outputs": [
        {
          "internalType": "uint256",
          "name": "",
          "type": "uint256"
        }
      ],
      "stateMutability": "view",
      "type": "function",
      "constant": true
    },
    {
      "inputs": [
        {
          "internalType": "uint256",
          "name": "_id",
          "type": "uint256"
        },
        {
          "internalType": "string",
          "name": "_nomeAluno",
          "type": "string"
        },
        {
          "internalType": "string",
          "name": "_curso",
          "type": "string"
        },
        {
          "internalType": "string",
          "name": "_dataEmissao",
          "type": "string"
        }
      ],
      "name": "registrarCertificado",
      "outputs": [],
      "stateMutability": "nonpayable",
      "type": "function"
    },
    {
      "inputs": [
        {
          "internalType": "uint256",
          "name": "_id",
          "type": "uint256"
        }
      ],
      "name": "obterCertificado",
      "outputs": [
        {
          "internalType": "uint256",
          "name": "",
          "type": "uint256"
        },
        {
          "internalType": "string",
          "name": "",
          "type": "string"
        },
        {
          "internalType": "string",
          "name": "",
          "type": "string"
        },
        {
          "internalType": "string",
          "name": "",
          "type": "string"
        },
        {
          "internalType": "bool",
          "name": "",
          "type": "bool"
        }
      ],
      "stateMutability": "view",
      "type": "function",
      "constant": true
    },
    {
      "inputs": [
        {
          "internalType": "uint256",
          "name": "_id",
          "type": "uint256"
        }
      ],
      "name": "revogarCertificado",
      "outputs": [],
      "stateMutability": "nonpayable",
      "type": "function"
    },
    {
      "inputs": [],
      "name": "obterTodosIdsCertificados",
      "outputs": [
        {
          "internalType": "uint256[]",
          "name": "",
          "type": "uint256[]"
        }
      ],
      "stateMutability": "view",
      "type": "function",
      "constant": true
    }
  ],
  "bytecode": "0x608060405234801561000f575f80fd5b5061114c8061001d5f395ff3fe608060405234801561000f575f80fd5b5060043610610060575f3560e01c80634b38d874146100645780638c963c47146100985780638e59bb48146100b6578063a93ecd41146100ea578063c43162a814610106578063f21a1fce14610122575b5f80fd5b61007e600480360381019061007991906108a5565b610152565b60405161008f959493929190610983565b60405180910390f35b6100a06103bb565b6040516100ad9190610aa0565b60405180910390f35b6100d060048036038101906100cb91906108a5565b610411565b6040516100e1959493929190610983565b60405180910390f35b61010460048036038101906100ff91906108a5565b6105e0565b005b610120600480360381019061011b9190610bec565b6106de565b005b61013c600480360381019061013791906108a5565b610841565b6040516101499190610ca4565b60405180910390f35b5f60608060605f805f808881526020019081526020015f206040518060a00160405290815f820154815260200160018201805461018e90610cea565b80601f01602080910402602001604051908101604052809291908181526020018280546101ba90610cea565b80156102055780601f106101dc57610100808354040283529160200191610205565b820191905f5260205f20905b8154815290600101906020018083116101e857829003601f168201915b5050505050815260200160028201805461021e90610cea565b80601f016020809104026020016040519081016040528092919081815260200182805461024a90610cea565b80156102955780601f1061026c57610100808354040283529160200191610295565b820191905f5260205f20905b81548152906001019060200180831161027857829003601f168201915b505050505081526020016003820180546102ae90610cea565b80601f01602080910402602001604051908101604052809291908181526020018280546102da90610cea565b80156103255780601f106102fc57610100808354040283529160200191610325565b820191905f5260205f20905b81548152906001019060200180831161030857829003601f168201915b50505050508152602001600482015f9054906101000a900460ff16151515158152505090505f815f01510361038f576040517f08c379a000000000000000000000000000000000000000000000000000000000815260040161038690610d64565b60405180910390fd5b805f01518160200151826040015183606001518460800151955095509550955095505091939590929450565b6060600180548060200260200160405190810160405280929190818152602001828054801561040757602002820191905f5260205f20905b8154815260200190600101908083116103f3575b5050505050905090565b5f602052805f5260405f205f91509050805f01549080600101805461043590610cea565b80601f016020809104026020016040519081016040528092919081815260200182805461046190610cea565b80156104ac5780601f10610483576101008083540402835291602001916104ac565b820191905f5260205f20905b81548152906001019060200180831161048f57829003601f168201915b5050505050908060020180546104c190610cea565b80601f01602080910402602001604051908101604052809291908181526020018280546104ed90610cea565b80156105385780601f1061050f57610100808354040283529160200191610538565b820191905f5260205f20905b81548152906001019060200180831161051b57829003601f168201915b50505050509080600301805461054d90610cea565b80601f016020809104026020016040519081016040528092919081815260200182805461057990610cea565b80156105c45780601f1061059b576101008083540402835291602001916105c4565b820191905f5260205f20905b8154815290600101906020018083116105a757829003601f168201915b505050505090806004015f9054906101000a900460ff16905085565b5f805f8381526020019081526020015f2090505f815f015403610638576040517f08c379a000000000000000000000000000000000000000000000000000000000815260040161062f90610d64565b60405180910390fd5b806004015f9054906101000a900460ff16610688576040517f08c379a000000000000000000000000000000000000000000000000000000000815260040161067f90610dcc565b60405180910390fd5b5f816004015f6101000a81548160ff0219169083151502179055507f043b86ed43d2475ef4742db235fd0054c10e94fbcd06fbf10c6d131aaeceb074826040516106d29190610ca4565b60405180910390a15050565b5f805f8681526020019081526020015f205f015414610732576040517f08c379a000000000000000000000000000000000000000000000000000000000815260040161072990610e34565b60405180910390fd5b6040518060a00160405280858152602001848152602001838152602001828152602001600115158152505f808681526020019081526020015f205f820151815f015560208201518160010190816107899190610fef565b50604082015181600201908161079f9190610fef565b5060608201518160030190816107b59190610fef565b506080820151816004015f6101000a81548160ff021916908315150217905550905050600184908060018154018082558091505060019003905f5260205f20015f90919091909150557f82c0ba047fd169082117d7a95e02d74b99ba30483dcd415b2bbf490e2f1a67f88484848460405161083394939291906110be565b60405180910390a150505050565b60018181548110610850575f80fd5b905f5260205f20015f915090505481565b5f604051905090565b5f80fd5b5f80fd5b5f819050919050565b61088481610872565b811461088e575f80fd5b50565b5f8135905061089f8161087b565b92915050565b5f602082840312156108ba576108b961086a565b5b5f6108c784828501610891565b91505092915050565b6108d981610872565b82525050565b5f81519050919050565b5f82825260208201905092915050565b5f5b838110156109165780820151818401526020810190506108fb565b5f8484015250505050565b5f601f19601f8301169050919050565b5f61093b826108df565b61094581856108e9565b93506109558185602086016108f9565b61095e81610921565b840191505092915050565b5f8115159050919050565b61097d81610969565b82525050565b5f60a0820190506109965f8301886108d0565b81810360208301526109a88187610931565b905081810360408301526109bc8186610931565b905081810360608301526109d08185610931565b90506109df6080830184610974565b9695505050505050565b5f81519050919050565b5f82825260208201905092915050565b5f819050602082019050919050565b610a1b81610872565b82525050565b5f610a2c8383610a12565b60208301905092915050565b5f602082019050919050565b5f610a4e826109e9565b610a5881856109f3565b9350610a6383610a03565b805f5b83811015610a93578151610a7a8882610a21565b9750610a8583610a38565b925050600181019050610a66565b5085935050505092915050565b5f6020820190508181035f830152610ab88184610a44565b905092915050565b5f80fd5b5f80fd5b7f4e487b71000000000000000000000000000000000000000000000000000000005f52604160045260245ffd5b610afe82610921565b810181811067ffffffffffffffff82111715610b1d57610b1c610ac8565b5b80604052505050565b5f610b2f610861565b9050610b3b8282610af5565b919050565b5f67ffffffffffffffff821115610b5a57610b59610ac8565b5b610b6382610921565b9050602081019050919050565b828183375f83830152505050565b5f610b90610b8b84610b40565b610b26565b905082815260208101848484011115610bac57610bab610ac4565b5b610bb7848285610b70565b509392505050565b5f82601f830112610bd357610bd2610ac0565b5b8135610be3848260208601610b7e565b91505092915050565b5f805f8060808587031215610c0457610c0361086a565b5b5f610c1187828801610891565b945050602085013567ffffffffffffffff811115610c3257610c3161086e565b5b610c3e87828801610bbf565b935050604085013567ffffffffffffffff811115610c5f57610c5e61086e565b5b610c6b87828801610bbf565b925050606085013567ffffffffffffffff811115610c8c57610c8b61086e565b5b610c9887828801610bbf565b91505092959194509250565b5f602082019050610cb75f8301846108d0565b92915050565b7f4e487b71000000000000000000000000000000000000000000000000000000005f52602260045260245ffd5b5f6002820490506001821680610d0157607f821691505b602082108103610d1457610d13610cbd565b5b50919050565b7f436572746966696361646f206e616f206578697374652e0000000000000000005f82015250565b5f610d4e6017836108e9565b9150610d5982610d1a565b602082019050919050565b5f6020820190508181035f830152610d7b81610d42565b9050919050565b7f436572746966696361646f206a61207265766f6761646f2e00000000000000005f82015250565b5f610db66018836108e9565b9150610dc182610d82565b602082019050919050565b5f6020820190508181035f830152610de381610daa565b9050919050565b7f494420646f20636572746966696361646f206a61206578697374652e000000005f82015250565b5f610e1e601c836108e9565b9150610e2982610dea565b602082019050919050565b5f6020820190508181035f830152610e4b81610e12565b9050919050565b5f819050815f5260205f209050919050565b5f6020601f8301049050919050565b5f82821b905092915050565b5f60088302610eae7fffffffffffffffffffffffffffffffffffffffffffffffffffffffffffffffff82610e73565b610eb88683610e73565b95508019841693508086168417925050509392505050565b5f819050919050565b5f610ef3610eee610ee984610872565b610ed0565b610872565b9050919050565b5f819050919050565b610f0c83610ed9565b610f20610f1882610efa565b848454610e7f565b825550505050565b5f90565b610f34610f28565b610f3f818484610f03565b505050565b5b81811015610f6257610f575f82610f2c565b600181019050610f45565b5050565b601f821115610fa757610f7881610e52565b610f8184610e64565b81016020851015610f90578190505b610fa4610f9c85610e64565b830182610f44565b50505b505050565b5f82821c905092915050565b5f610fc75f1984600802610fac565b1980831691505092915050565b5f610fdf8383610fb8565b9150826002028217905092915050565b610ff8826108df565b67ffffffffffffffff81111561101157611010610ac8565b5b61101b8254610cea565b611026828285610f66565b5f60209050601f831160018114611057575f8415611045578287015190505b61104f8582610fd4565b8655506110b6565b601f19841661106586610e52565b5f5b8281101561108c57848901518255600182019150602085019450602081019050611067565b868310156110a957848901516110a5601f891682610fb8565b8355505b6001600288020188555050505b505050505050565b5f6080820190506110d15f8301876108d0565b81810360208301526110e38186610931565b905081810360408301526110f78185610931565b9050818103606083015261110b8184610931565b90509594505050505056fea26469706673582212208fd5810118342b1e890b1bdcb7f47febf0355c100e44c6e018aa7f7e6f128f3364736f6c63430008180033",
  "immutableReferences": {},
  "source": "// SPDX-License-Identifier: GPL-3.0\r\npragma solidity ^0.8.24;\r\n\r\ncontract RegistroCertificado {\r\n\r\n    struct Certificado {\r\n        uint id;\r\n        string nomeAluno;\r\n        string curso;\r\n        string dataEmissao;\r\n        bool valido;\r\n    }\r\n\r\n    mapping(uint => Certificado) public certificados;\r\n    uint[] public idsCertificados;\r\n\r\n    event CertificadoRegistrado(uint id, string nomeAluno, string curso, string dataEmissao);\r\n    event CertificadoRevogado(uint id);\r\n\r\n    function registrarCertificado(uint _id, string memory _nomeAluno, string memory _curso, string memory _dataEmissao) public {\r\n        require(certificados[_id].id == 0, \"ID do certificado ja existe.\");\r\n\r\n        certificados[_id] = Certificado({\r\n            id: _id,\r\n            nomeAluno: _nomeAluno,\r\n            curso: _curso,\r\n            dataEmissao: _dataEmissao,\r\n            valido: true\r\n        });\r\n\r\n        idsCertificados.push(_id);\r\n\r\n        emit CertificadoRegistrado(_id, _nomeAluno, _curso, _dataEmissao);\r\n    }\r\n\r\n    function obterCertificado(uint _id) public view returns (uint, string memory, string memory, string memory, bool) {\r\n        Certificado memory cert = certificados[_id];\r\n        require(cert.id != 0, \"Certificado nao existe.\");\r\n\r\n        return (cert.id, cert.nomeAluno, cert.curso, cert.dataEmissao, cert.valido);\r\n    }\r\n\r\n    function revogarCertificado(uint _id) public {\r\n        Certificado storage cert = certificados[_id];\r\n        require(cert.id != 0, \"Certificado nao existe.\");\r\n        require(cert.valido, \"Certificado ja revogado.\");\r\n\r\n        cert.valido = false;\r\n        emit CertificadoRevogado(_id);\r\n    }\r\n\r\n    function obterTodosIdsCertificados() public view returns (uint[] memory) {\r\n        return idsCertificados;\r\n    }\r\n}\r\n",
  "sourcePath": "C:\\Users\\bernardo.figueiredo\\Trab3Sensato_Blockchain\\contracts\\RegistroCertificado.sol",
  "compiler": {
    "name": "solc",
    "version": "0.8.24+commit.e11b9ed9.Emscripten.clang"
  },
  "schemaVersion": "3.4.16",
  "updatedAt": "2024-11-18T02:12:50.869Z",
  "networkType": "ethereum",
  "devdoc": {
    "kind": "dev",
    "methods": {},
    "version": 1
  },
  "userdoc": {
    "kind": "user",
    "methods": {},
    "version": 1
  }
}